:020000040000FA
:0600000054EF12F01200A3
:020006001200E6
:06000800C1EF0EF0120032
:02000E000000F0
:020010000000EE
:0600180083EF0EF0120060
:02001E000800D8
:10002000B825000029010000280000009D250000DF
:10003000E50000001B0000000E0000008E01000023
:10004000040000003C250000000F000061000000DB
:100050001325000000010000290000005D210000C0
:100060009301000001000000002500007101000064
:1000700013000000E02400005101000020000000F7
:1000800062EC05F050D8E80EE66E030EE66E0DD871
:10009000E552E55201015C51FDE05C6B58EC0AF061
:1000A000ACD9D5DA4CEC08F0F5D7AEEC05F0040E7F
:1000B000E126DE6ADD6ADECF10F0DDCF11F034EC30
:1000C00005F011501318E8AE02D0133404D01250CA
:1000D000105C135011581DE2020EDB6A030EDB6A3E
:1000E000020EDBCF10F0030EDBCF11F0D8901150D1
:1000F00004E6EE0E105C000E115806E2020EDB2A3A
:10010000030EEEE3DB2AECD7DF2A010ED4E3DB2A71
:10011000D2D7040EE15C02E2E16AE55242EF05F05B
:10012000956A836A1200FCDF5DEC06F04CEC0AF085
:100130007BEC0EF0E4EC06F0C5EC07F02BEC05F0E0
:10014000570EE66E120EE66E49EC0DF0E552E552E2
:10015000660EE66EB70EE66E8EEC0DF0E552E552D9
:100160009CEC05F0E7EC0DF0E552E552320EE66E40
:10017000E66A0CEC0EF0E552E552120058EC05F080
:100180000EE134EC05F0133404E212500708000EBF
:10019000135405E350EC05F0EF508310836EB3EF7A
:1001A00005F058EC05F00EE134EC05F0133404E2F0
:1001B00012500708000E135405E350EC05F0EF1C35
:1001C0008314836EB3EF05F0AEEC05F018EC05F088
:1001D000EF0408E182EC05F0CEEC05F018EC05F038
:1001E000EF6A08D082EC05F0D3EC05F018EC05F0CE
:1001F000010EEF6EB3EF05F0010129512A1103E062
:1002000001012629266F26C110F0116A126A136AAD
:1002100026C1E6FFA7EC05F0E66AE7DB29C110F08E
:100220002AC111F0126A136A29C1E6FF2AC1E6FF4A
:1002300012C0E6FF13C0E6FFE66AA4EF05F062EC29
:1002400005F03BEC05F004E60E0E105C000E1158B4
:1002500015E2DECFE6FFDDCFE6FFD3EC05F02BECB9
:1002600005F0DECFE6FFDDCFE6FFCEEC05F02BECB0
:1002700005F0DF2A010EE5E3DB2AE3D7020EE15C9D
:1002800002E2E16AE55242EF05F0000EB0D3000E43
:10029000B2D3040EACD3040EAED3060EA8D3060E12
:1002A000AAD3010EA4D3010EA6D3050EA0D3050E2A
:1002B000A2D3070E9CD3070E9ED30101010E411954
:1002C00003E1425101E1010C000C0101010E2B1967
:1002D00003E12C5101E1010C000C01010A0ED88050
:1002E0002B55000E2C5501E2010C000C0101010EF2
:1002F0003B1903E13C5101E1010C000C01010A0E24
:10030000D8803B55000E3C5501E2010C000C010168
:10031000010E451903E1465101E1010C000C0101F8
:10032000010E331903E1345101E1010C000C01010C
:10033000010E351903E1365101E1010C000C0101F8
:10034000010E371903E1385101E1010C000C0101E4
:10035000010E3F1903E1405101E1010C000C0101C4
:10036000010E471903E1485101E1010C000C0101A4
:10037000010E351903E1365101E1010C000C0101B8
:10038000010E291903E12A5101E1010C010E2B197B
:1003900003E12C5101E1020C010E2D1903E12E5154
:1003A00001E1030C010E311903E1325101E1040CAA
:1003B000010E331903E1345101E1050C010E351929
:1003C00003E1365101E1060C010E391903E13A51FE
:1003D00001E1070C010E3B1903E13C5101E1080C5E
:1003E000010E3D1903E13E5101E1090C010E4319D3
:1003F00003E1445101E1000C0A0CC5EC07F00101D6
:100400002129106E140E116E0E6E10C009F062ECF0
:1004100012F005C021F10101055003E1285101E06E
:10042000202B1A51050A01E1E5D0060A01E1ADD001
:10043000010A01E177D0030A3FE0010A08E0FF0A60
:1004400001E0F2D0400EE66E210EACDA67D0370E36
:10045000E66E210EB5DB180EF3DA01011C51205DAA
:1004600002E22DDB03E00101285105E101012851E1
:1004700006E125DB04E00101010E1A6F206B77DF36
:10048000000904E00101030E1A6F206B59DB03E041
:100490000101050E1A6F0101285101E1C6D020515A
:1004A0001C5D1D25E66EE66A20511C5DA8DA1C5D08
:1004B0009ADB1C5D1D259BD0260EE66E210E80DB8F
:1004C000280EBEDA01011D51205D02E2F8DA03E0D8
:1004D0000101285105E10101285106E1F0DA04E0AB
:1004E0000101020E1A6F206B2BDB03E00101050EE8
:1004F0001A6F010128510EE0FF0E2003F3501D2555
:10050000E66EE66A20511D5D7ADA1D5D30DB1D2541
:1005100058DA1ADB2CDF000901E187D001011A6BE0
:10052000206B83D01D0EE66E210E50DB420E88DA62
:1005300001011E51205D02E2C2DA03E001012851EF
:1005400005E10101285106E1BADA04E00101030ED8
:100550001A6F206BF5DA03E00101050E1A6F07DF51
:10056000000904E00101010E1A6F206B01012851FE
:100570005CE020511E5DE66EE66A20511E5D1F257F
:100580003EDA1E5D30DB1E5D31D00C0EE66E210EB4
:100590001DDB440E55DA01011F51205D02E28FDAA6
:1005A00003E00101285105E10101285105E187DA45
:1005B00003E001011A6B206BC3DA03E00101050EB1
:1005C0001A6FD5DE000904E00101020E1A6F206BDC
:1005D000010128512AE0FF0E2003F3501F25E66E8B
:1005E000E66A20511F5D0BDA1F5DC1DA1F25E9D9CC
:1005F000ABDA1BD0FC0EE66E200ED4D9EC0EE66E04
:10060000200EE3D99DDA03E001011A69206B010194
:1006100021510A0802E2240E01D0000E11DA000E68
:10062000E66EE66AABDA01D01A6989DE000907E0F6
:100630000101285102E0000E01D0010E286F3DDEBD
:10064000000904E00101010E246F1B691200010181
:10065000245101E1DBD0C5EC07F001011B51030A75
:1006600001E1A3D0010A6EE0030A3BE0010A07E0C2
:10067000FF0A01E012001B6B1CC122F1120047DED1
:10068000000902E00101246BDF0EE66E200E90DA15
:1006900001E08CD91ADE000904E0F6D902E1010E6E
:1006A000226F24DE000904E0D1D902E1630E226F3B
:1006B00014DE000904E0E8D902E1010E226F1EDE1B
:1006C000000904E0C3D902E1630E226F28DE0009AD
:1006D00001E19CD022C11CF11DC122F10101010EDA
:1006E00062D015DE000902E001011B6BD10EE66E3F
:1006F000200E5EDA01E15AD9E8DD000904E0CAD92A
:1007000002E1010E226FF2DD000904E09FD902E14F
:100710000A0E226FE2DD000904E0BCD902E1010EFD
:10072000226FECDD000904E091D902E10A0E226F8C
:10073000F6DD00096BE022C11DF11EC122F10101AD
:10074000020E31D0E4DD000903E00101010E1B6F50
:10075000C40EE66E200E2CDA01E128D9B6DD0009C0
:1007600004E092D902E1010E226FC0DD000904E02D
:100770006DD902E1630E226FB0DD000904E084D977
:1007800002E1010E226FBADD000904E05FD902E147
:10079000630E226FC4DD000939E022C11EF11FC1C2
:1007A00022F10101030E1B6F1200B1DD000903E00D
:1007B0000101020E1B6FB60EE66E200EF9D901E1A3
:1007C000F5D883DD000904E065D902E1010E226F4E
:1007D0008DDD000904E03AD902E10A0E226F7DDDC9
:1007E000000904E057D902E1010E226F87DD0009FC
:1007F00004E02CD902E10A0E226F91DD000906E027
:1008000022C11FF11CC122F10101246B1200E66A12
:10081000ACEC0CF0E552ECD9E66AE7D8790EE66E5E
:10082000E66AE66AE66AE66A010EE66E7DEC08F0C4
:10083000106E060EE15E10501200E5D0E4D08ED9A5
:10084000080EE126B8D9C6D843D9020EEFCFDBFF98
:10085000B2D9C0D846D9030E99D93AD9040E96D93F
:1008600040D9050EEFCFDBFFDE6ADD6A04D901E671
:100870005ED928E2030EDB50DF5206E0DFCFF3FF44
:10088000E8327F0BF306FCE144D903E055D976DC6E
:1008900002D052D986DCE552E552050EDB50DF521C
:1008A00006E0DFCFF3FFE8327F0BF306FCE131D93E
:1008B00003E0030EABD902D0030EACD91BD9D6E3AB
:1008C000DB2AD4D7DE6ADD6AD6D801E630D928E241
:1008D000020EDB50DF5206E0DFCFF3FFE8327F0B82
:1008E000F306FCE11DD903E027D948DC02D024D966
:1008F00058DCE552E552040EDB50DF5206E0DFCF54
:10090000F3FFE8327F0BF306FCE10AD903E0030EA4
:100910007DD902D0030E7ED9EDD8D6E3DB2AD4D719
:10092000010EE66E8BDFE552080EE15C02E2E16A41
:10093000E552A8D013D9030EE126DE6ADD6A9BD802
:1009400001E6F5D825E290D8DF5012C010F013C0B0
:1009500011F005E0D89011321032E804FBE1010EED
:100960001016000E1116020E10C0DBFFDB5003E064
:10097000060E4CD902D0060E4DD9E552E552040EB2
:10098000E66E5BDFE552DF2A010ED9E3DB2AD7D71B
:10099000050EE66E53DFE552030EE15C02E2E16A0A
:1009A000E55270D0E66EE66AE66A16D122C110F012
:1009B000116A126A136A22C1E6FFC9D8E66AA4EF77
:1009C00005F016D90E0EE66E1200E66EE66A010E0E
:1009D000E66E02D1DBCFEAFF0A0E0D6E0E6AE9CF9A
:1009E00008F0EACF09F02EEF12F0E66A08D1E66EC1
:1009F000E66AD3EF05F0E66EE66ACEEF05F0BED804
:100A0000010120511200AAD8FE0EDBCFE6FFE66AF4
:100A1000CAD8FE0EDBCFE6FFE66AC0D8A4D0070E28
:100A2000106E0E6E21C109F062EC12F0055012003A
:100A3000C2D8DBCFEAFF120EE926010EEA2212002D
:100A4000E66EE66A77DFE552E55212000101220503
:100A5000226FE8501200F40EE66E010EE66E55ECC1
:100A600000F0E552E5521200FD0EDBCF12F0FE0E53
:100A7000DBCF13F01200DECF10F0DDCF11F0D890F5
:100A800011501200E16E6FD001012229226F640E15
:100A9000225D120001012229226F0B0E225D12003D
:100AA0008AD8DBCFEAFF0A0EE926010EEA221200FD
:100AB00055D8FE0EDBCF11F0800E1114120037DC7A
:100AC000000912004BD8020EE126DE6ADD6A120030
:100AD00008C0E9FF09C0EAFF000EE926010EEA227C
:100AE000120004C0E9FF05C0EAFF000EE926010E6E
:100AF000EA221200E552E552E66A9FDEE552DF2A5D
:100B0000010E1200FD0EDBCFE6FFFE0EDBCFE6FF8F
:100B10001200010BE76E060EE7CFDBFFDB50120081
:100B2000010BE76E070EE7CFDBFFDB501200080E6C
:100B3000105C000E11581200020EE66EE66A1200FA
:100B4000A7EC01F000091200010EE66E58D011C0AA
:100B5000E6FF12C0E6FF13C0E6FF1200D9CFE6FFA2
:100B6000E1CFD9FF1200E552E7CFD9FF120029DF0C
:100B70003CDFFF0E01012003F3501200E66EE66A2F
:100B80005EDEE552E552E552E5521200EFCFDBFFA3
:100B9000FB0EDBCFE9FFFC0EEAEF04F0D1EC00F036
:100BA000E552E5521200BEEC00F0E552E5521200AB
:100BB000F9DE0FEF05F0FD0EDBCFE9FFFE0E1200B0
:100BC000F1DE300EE66E210EE5EF04F0FEDE160ECD
:100BD000E66E210ED2EF04F0CBEC08F0E552E552C0
:100BE000E552E5521200EDDE00DF01012051120056
:100BF000106E116A126A136AE66EA7EF05F07DECBB
:100C000008F0146E060EE15E14501200E66EE66AFD
:0C0C1000BEEF00F0E66EE66AD1EF00F0E7
:040C1C0033EC0AF0BB
:100C20008CDB11AE02D01268136831DB13E29ADB61
:100C30005ADB04E6050E105C000E115806E2020EA7
:100C4000DB2A030EF5E3DB2AF3D7DF2A010EE8E304
:100C5000DB2AE6D7040EE15C02E2E16AE552E16ECE
:100C6000CCD233EC0AF069DB11AE02D01268136803
:100C70000EDB13E277DB37DB04E6EE0E105C000ED2
:100C8000115806E2020EDB2A030EF5E3DB2AF3D746
:100C9000DF2A010EE8E3DB2AE6D7040EE15C02E27C
:100CA000E16AE552E16EA9D2E4DBF00B7BDBFE0EDC
:100CB000DB38F00B811288DAA0D2D2DB936A190EEE
:100CC0005FDB0F0E8116F80E81160F0E8116300EA7
:100CD00069DB300E67DB300E65DB818A75DA280E42
:100CE000E66EE2DFE5520C0EE66EDEDFE552E5521F
:100CF00084D2ACDB010EDB6A819459DBE76E010E16
:100D0000E7CFDBFF819653DBDF6E010EDB50DF1296
:100D10008196010E60DADF50106E020EE15C02E295
:100D2000E16AE552E16E105068D29ADBDF6AE1DFDA
:100D3000DF6EDFBEFCD7DF50E5525FD29ADB811257
:100D40008186050E48DA8196050E45DA56D250DACC
:100D50008194050E40DAA7DA50D24ADA8184050E72
:100D60003ADAA1DA819449D24AD349D341DAFD0E65
:100D7000DBCFF6FFFE0EDBCFF7FF0800F5500DE0EE
:100D8000FD0EDBCFF6FFDB2AFE0EDBCFF7FF01E324
:100D9000DB2A0800F5502ADBEAD72FD261DBFD0EF3
:100DA000DB500F0B106EFE0EDB50010B400DF350AD
:100DB0001024DF6E7F0EDF14800FDF6EDFCFE6FFC3
:100DC000C6DFE552E55219D2010EE66EC0DFE552EC
:100DD000E66AE66A3FEF0AF00BDA050EE126010E3D
:100DE000F36EDB6EBFDA040EDB6ADF6ADFCF10F072
:100DF000116A10BE1168A8DA11501318E8AE02D0BB
:100E0000133404D01250105C135011581FE2FD0E21
:100E1000DBCF10F0FE0EDBCF11F0126A136A11AEB9
:100E200002D012681368D950010FE96EDACFEAFFD9
:100E300010C00BF011C00CF012C00DF013C00EF07A
:100E4000EADA99EC11F0F0DADF2AD0D7010EDBCF25
:100E500010F0020EDBCF11F0030EDBCF12F0040E08
:100E6000DBCF13F010C006F011C007F012C008F07D
:100E700013C009F0050EE15C02E2E16AE552E16EA1
:100E8000BCD1E4DAFB0EDBCF10F0FC0EDBCF11F0AF
:100E9000FD0EDBCF12F0FE0EDBCF13F01050111061
:100EA0001210131003E1300EA1DA36D0D950FB0F27
:100EB00023DA01E627DA05E22D0E98DAD950FB0F86
:100EC000D9D9DE52070EDD6E46DAE8AE02D0103414
:100ED00003D0E750D88010541FE226DA14BE1568FC
:100EE00080D945DA6DDA17DA0BE0010EDF6EDB042C
:100EF000186E196A18BE196892D962DAAED903D091
:100F0000DF5002E0300E72DA0FDA14BE156869D9CC
:100F1000D950FB0F7BD9D8D7020EE15C02E2E16A1F
:100F2000E552E16E6AD164D9D6D9D950F90F62DAA7
:100F3000EECFE6FFEECFE6FFEECFE6FFEFCFE6FF28
:100F4000A0DFE552E552E552E55257D151D9C3D958
:100F5000FB0EDBCFE6FFFC0EDBCFE6FF07DFE55243
:100F6000E5524BD145D97BCF10F07CCF11F0040E68
:100F7000D89010361136E806FBE1A1D9FE0EDBCF82
:100F8000EFFF7D2B000E7E2338D16ADADF6ADFCFD8
:100F900010F0100EE76E1018E8AE02D0E73402D061
:100FA000E750105C18E2DFCFE9FFEA6AE9BEEA68C1
:100FB000410EE9260F0EEA22200EEF6EDFCFE9FF89
:100FC000EA6AE9BEEA68510EE9260F0EEA22200E0F
:100FD000EF6EDF2ADCD7E55210D142DA0F01405123
:100FE000030A29E0010A1CE0030A0CE0010A32E1CD
:100FF0004ADA080EDF5C03E2DF50C8D9FAD70F01E6
:10100000010E17D0080EE66EE66A18D9080EDF5CEE
:1010100004E2080EDF24BAD9F9D70F01020E09D075
:101020001ADA080EDF5C03E2DF50B6D9FAD70F01F7
:10103000030E406F10D0080EE66E010EE66EFED86D
:10104000080EDF5C04E2080EDF24A6D9F9D70F01F1
:10105000406B01D0406BE552D0D002DA0F01405115
:10106000010A0DE0010A15E10EDA100EDF5C03E261
:10107000DF508CD9FAD70F01010E406F0BD0EBD99E
:10108000100EDF5C03E2DF5087D9FAD70F01406B07
:1010900001D0406BE552B1D0E3D9F5D9100EDF5C39
:1010A00003E2DF5073D9FAD7D6D9100EDF5C03E222
:1010B000DF5072D9FAD7E552A0D09AD8C2D8FC0E28
:1010C000DB500A0802E1610E05D0FC0EDB500D0872
:1010D00005E1640EF36EFC0EF3CFDBFF7BCF10F067
:1010E0007CCF11F0040ED89010361136E806FBE1E3
:1010F000E6D8FC0EDBCFEFFF80D0A8D9A2D8F90E3E
:10110000DBCF10F0FA0EDBCF11F01ED9105011100A
:101110001210131003E1300E0CD936D0D950F90F4C
:10112000EBD801E6EFD805E22D0E03D9D950F90F1F
:10113000A1D8DE52070EDD6E0ED9E8AE02D0103413
:1011400003D0E750D88010541FE2EED814BE1568C3
:1011500048D80DD940D9DFD80BE0010EDF6EDB0493
:10116000186E196A18BE19685AD835D976D803D0BE
:10117000DF5002E0300EDDD8D7D814BE156831D864
:10118000D950F90F43D8D8D7020EE15C02E2E16AE8
:10119000E552E16E32D02CD854D8FB0EDBCFF6FFEF
:1011A000FC0EDBCFF7FF0800F5500DE0FB0EDBCFA8
:1011B000F6FFDB2AFC0EDBCFF7FF01E3DB2A08009A
:1011C000F550B7D8EAD719D08186010ED9D88196C3
:1011D000010EC0EF09F0E66EE66AE66AE66A1EDD19
:1011E00056D114C0E6FF15C0E6FF10D91DEF0AF076
:1011F000D9CFE6FFE1CFD9FF1200E552E7CFD9FF03
:101200001200EA22EF50F2D8DF2A1200F3D8AFD84A
:1012100002D9D1EC11F008D9010EDB06120018C07A
:10122000E6FF19C0E6FFF2D806C014F007C015F0BB
:1012300008C016F009C017F0B7EF09F020D9DF6A2F
:101240001200FE0EDB50010B0F017B6F7C6BFD0E5D
:10125000DB500F0B7D6F7E6B1200DBCF09F0D1EC02
:1012600011F0EBD8300E1026000E1122122213229C
:1012700010501200BFD8000EEE6CEF1EEE22EF1ED3
:10128000EE22EF1EEF22ED52ED52ED521200D95038
:10129000FB0FB0D8EE50105CEE501158EE501258C3
:1012A000EE5013581200FE0EDBCFE6FF47DDE5528D
:1012B000FE0EDB38F00BE66E41DDE5521200410E0A
:1012C00010260F0E112210500F017D25E96E1150CE
:1012D0007E21EA6E1200FD0EDBCFE6FFFE0EDBCFB5
:1012E000E6FF3FEF0AF0020EDBCF10F0030EDBCF7C
:1012F00011F0D890115012007DD8D890030EEB5009
:10130000000A1200000EEE5C000EEE58000EEE58C1
:10131000000EEE581200DBCF09F0D1EC11F00650B0
:101320000710081009101200010EDB04146E156A74
:101330001200E66E17DEE5521200DECF10F0DDCFB0
:1013400011F0126A136A1200FB0EDBCF12F0FC0ED2
:10135000DBCF13F01200010EDBCF10F0000EE76EB2
:1013600010181200020EDB6A030EDB6A120006C0C0
:101370000BF007C00CF008C00DF009C00EF0120011
:10138000E66EE66AE66AE66A6CDC81D0EA6A410FDC
:10139000E96E0F0E01EF09F0EA6A510FE96E0F0EC8
:1013A00001EF09F0811210DF0F0E811612000F0EEF
:1013B00012DF0F0E811281860EDF0F0E81141200D4
:1013C000FB0EDBCF06F0FC0EDBCF07F0FD0EDBCF14
:1013D00008F0FE0E1200F90EDBCF06F0FA0EDBCF9E
:1013E00007F0FB0EDBCF08F0FC0E1200E66EBDDC52
:1013F000E5521200E96EFF0EDA20EA6E1200F8DE06
:10140000FE0EDBCFE6FFA9DCE552F7D60A0EE66E4C
:10141000E66AE2DC3CD0EECF06F0EECF07F0EECF8E
:1014200008F0EFCF09F0120005C0EDFF04C0EDFF9A
:1014300003C0EDFF02C0EFFF120006C010F007C0AE
:1014400011F008C012F009C013F01200D1DE020E34
:10145000E126DF6A1200E66A010EE66E1EEF09F071
:10146000C7DEE6521200C4DE040EE126DE6ADD6A43
:101470001200BEDE0F0E8116FE0EDB5012008EDC57
:10148000E552E5521200E66AE66A1EEF09F0E552FF
:08149000E552E552E55212009D
:081498000F0E946E8268120031
:1014A000070E9410946EDF0E9414946E82681200EE
:1014B0003ED968D901E661D915E24BD9826E58D977
:1014C0003FD901E65AD909E225D902E16CD901D008
:1014D00083D965D9F5E3DB2AF3D7DF2A010EE9E3E7
:1014E000DB2AE7D7040EE15C02E2E16AE5523BD178
:1014F0001ED948D904E6020E105C000E115813E202
:101500006FD91ED901E639D909E204D902E14BD9D4
:1015100001D062D944D9F5E3DB2AF3D7DF2A010EE3
:10152000E8E3DB2AE6D7040EE15C02E2E16AE55279
:101530001AD1FDD81DD90101491D8214826E18D916
:10154000FFD801E61AD909E2E5D802E12CD901D089
:1015500043D925D9F5E3DB2AF3D7040EE15C02E297
:10156000E16AE55200D1E3D803D9010EDE6EDD6AEF
:1015700037D9E6D804E6030E105C000E115809E2D4
:10158000C9D802E110D901D027D909D9F2E3DB2A61
:10159000F0D7040EE15C02E2E16AE552E4D0C7D87C
:1015A00024D9FD0EDBCF12F0FE0EDBCF13F011506D
:1015B0001318E8AE02D0133404D01250105C13504C
:1015C000115811E2D5D8BCD804E6EE0E105C000E1E
:1015D000115804E2E4D8F7E3DB2AF5D7DF2A010E3D
:1015E000DFE3DB2ADDD7040EE15C02E2E16AE552CB
:1015F000BAD09DD8C7D801E6C0D820E2AAD8826E5A
:10160000B7D89ED801E6B9D80BE2E6D883D804E172
:1016100071D8010EEE6EED6AC2D8F3E3DB2AF1D782
:101620008250816EE80EE66E030EE66EB8DFE5527C
:10163000E552DF2A010EDEE3DB2ADCD7040EE15C93
:1016400002E2E16AE5528FD0D9CFE6FF040EE1262F
:1016500084B005D00101292B000E2A2303D00101FB
:10166000296B2A6B84B204D02B2B000E2C2302D0C2
:101670002B6B2C6B84B404D02D2B000E2E2302D0A8
:101680002D6B2E6B82B004D02F2B000E302302D096
:101690002F6B306B82B204D0312B000E322302D07C
:1016A000316B326B82B404D0332B000E342302D062
:1016B000336B346B82BA04D0352B000E362302D044
:1016C000356B366B81B004D0372B000E382302D037
:1016D000376B386B040EE15C02E2E16AE55243D0FD
:1016E000070E9610966E270E9410946E010E9310AE
:1016F000936E12007AD8D89010361136D8901036E2
:101700001136020EDB501024E96E030EDB5011205F
:10171000FAEF0BF0020EDBCFE9FF030EDBCFEAFF9F
:101720004D0EE926010EEA22EF5082141200D9CFA5
:10173000E6FFE1CFD9FF040EE126DE6ADD6A120082
:10174000020EDBCF10F0030EDBCF11F0D89011505A
:101750001200DECFE9FFDDCFEAFF490EE926010ED8
:10176000EA22EF1C1200E16EE552E7CFD9FF12002A
:10177000020EDB6A030EDB6A1200040E105C000E20
:101780001158120032D8D89011501200D890143647
:101790001536120012C0EEFF13C0EDFF1200020E4C
:1017A000DB2A030E1200DECF14F0DDCF15F0EEDFE2
:1017B000EDDF020EDB501424E96E030EDB50152022
:1017C00019D8EECF12F0EFCF13F0010E1226000E53
:1017D000132290DFCAEF0BF08DDFEE6AED6A120084
:1017E000B8DF8214826EB8EF0BF0DECF10F0DDCFE1
:1017F00011F01200EA6ED890E936EA36290EE92691
:06180000010EEA221200B5
:0A1806000AD9020EE126FE0EDB50A7
:101810000F0BDF6EFE0EDB380F0B0A0D14D902E240
:10182000E16AE552E16E1050FED0F8D8020EE126D2
:1018300013D90550DF6E10D90950100D04D902E2FA
:10184000E16AE552E16E1050EED094869488C79E0E
:10185000C79CC690C692C694C686310EC86EC68A0C
:1018600012000ED9D00FC96E9EA6FED7DCD008D9C3
:10187000A00FC96E9EA6FED7D6D09E96C5809EA606
:10188000FED712009E96C5849EA6FED71200F8D8F9
:10189000C96E9EA6FED7C7D09E96C5869EA6FED7C9
:1018A000C95012009E96C59AC5889EA6FED7120002
:1018B0009E96C58AC5889EA6FED71200AFD8D4D8FA
:1018C000010E926FE85004E0C550400BFAE0F8D7E3
:1018D000FE0EA0D8010E926FE85004E0C550400BF8
:1018E000FAE0F8D7FD0EDBCFE6FF9FDFE552E66EAC
:1018F000CCD8010E926FE85004E0C550400BFAE0DE
:10190000F8D7C0DF90D08AD8B5D8010E926FE850D2
:1019100004E0C550400BFAE0F8D7FE0E7BD8010E6C
:10192000926FE85004E0C550400BFAE0F8D77FD83A
:10193000010E926FE85004E0C550400BFAE0F8D772
:10194000FC0E68D8010E926FE85004E0C550400BC1
:10195000FAE0F8D797DF67D061D8E65285D8010E54
:10196000926FE85004E0C550400BFAE0F8D7FE0E45
:1019700051D8010E926FE85004E0C550400BFAE0D8
:10198000F8D77BDF010EE66E6CDFE5520101010E38
:10199000926FE85004E0C550400BFAE0F8D77CDFC6
:1019A000DF6EDFCFE6FF2FDFE552DF6EDF50E5525F
:1019B0003AD034D8E6525ED8010E926FE85004E077
:1019C000C550400BFAE0F8D7FE0E24D8010E926FF6
:1019D000E85004E0C550400BFAE0F8D728D8010ED3
:1019E000926FE85004E0C550400BFAE0F8D745DFAD
:1019F000010EE66E3CDFE5520101010E926FE850E8
:101A000004E0C550400BFAE0F8D746DFDF6EDF5048
:101A1000E55209D0DBCFE6FF45EF0DF0D9CFE6FF69
:101A2000E1CFD9FF1200E552E7CFD9FF1200FD0E3A
:101A3000DBCF10F0FE0EDBCF11F00001116A105069
:101A4000E66E45EF0DF0010EF3CFDBFFDB50DF2438
:101A5000106E020EE15C12000A0E106E0E6EFE0E8B
:101A6000DBCF09F062EF12F008DFE66AFADEE5523A
:101A70000101120002DFE66AFADEE55201011200FE
:101A8000CDDF9E96FE0EDB50120001DFE552010114
:021A9000120042
:0E1A9200F1D8D59EFD0EDBCF51F1FE0EDBCF5D
:101AA00052F1D59C05D9D59AD586F28AF294F18463
:101AB000D58EE6D0D59E1200FBD8D58E1200DBD88D
:101AC000CD90FD0EDBCF53F1FE0EDBCF54F1F7D8F6
:101AD0009D809E909F90CD8ECD8CCD98CD9ACD96A9
:101AE000CD92CD80CDD0EBD8CD801200CD9012001C
:101AF000C2D8CA94CC6AFE0EDB500101556F566BFA
:101B0000CB6E9D829E929F92CA90CA92CA84B8D090
:101B100055C1CBFFCA841200CA941200ACD8B19050
:101B2000FD0EDBCF57F1FE0EDBCF58F1CFD80750BB
:101B3000B36ECCD8B5D8B26EA082A192A292B18E6B
:101B4000B198B19AB192B1809BD0C0D80350B26E17
:101B5000BDD89ED8B36EB1801200B19012000101C1
:101B6000612B000E62236951615D6A51625904E381
:101B7000616B626B010E596F12000101632B000E45
:101B800064236B51635D6C51645904E3636B646B54
:101B9000010E5A6F12000101652B000E66236D5174
:101BA000655D6E51665904E3656B666B010E5B6F94
:101BB00012000101672B000E68236F51675D7051A1
:101BC000685904E3676B686B010E5C6F120053D8B1
:101BD000FD0EDBCF69F1FE0EDBCF6AF10101616B17
:101BE000626B596B4DD047D8FD0EDBCF6BF1FE0E0B
:101BF000DBCF6CF1050E0D6E0E6A6BC108F06CC187
:101C000009F0AFEC10F008C06BF109C06CF10101F4
:101C1000636B646B5A6B34D02ED8FD0EDBCF6FF143
:101C2000FE0EDBCF70F10A0E0D6E0E6A6FC108F06A
:101C300070C109F0AFEC10F008C06FF109C070F18D
:101C40000101676B686B5C6B1BD0186A1650135CE4
:101C5000106E17501458116E18501558126E0C6AE9
:101C6000010E0D6E0E6A10C007F011C008F012C010
:101C700009F0D5EF10F0D9CFE6FFE1CFD9FF120080
:101C8000E552E7CFD9FF120013681468156A1200F5
:101C900007C010F008C011F009C012F00750120080
:101CA00003C010F004C011F005C012F00350120080
:101CB00014D80350D66E11D8EBDFD76E120014D8AB
:101CC0000750CF6E11D8ECDFCE6E1200DDDF57C1AA
:101CD00016F058C117F025EF0EF0D6DF51C116F0FF
:101CE00052C117F025EF0EF0CFDF53C116F054C1EB
:061CF00017F025EF0EF0D5
:0A1CF600F28ED08EF28C1200F19CE9
:101D0000F292F2881200D8CFE4FFE0CFE4FFE46E55
:101D10006CD800EE00F0100EE80403E3EECFE4FF11
:101D2000FBD700EE10F00A0EE80403E3EECFE4FF69
:101D3000FBD7E652F2B481D89EB086D89EB28BD83B
:101D4000A1B290D8F2B2F2929EAA03D09E9AAEECC3
:101D50000FF0E55200EE19F00A0EE80403E3E5CFB8
:101D6000EDFFFBD700EE0FF0100EE80403E3E5CF24
:101D7000EDFFFBD74FD8E550E5CFE0FFE5CFD8FF2B
:101D8000100033D800EE00F0100EE80403E3EECFAD
:101D9000E4FFFBD700EE10F00A0EE80403E3EECFF9
:101DA000E4FFFBD7E652F2B448D89EB04DD89EB2BD
:101DB00052D8A1B257D8F2B2F2929EAA03D09E9AFC
:101DC000AEEC0FF0E55200EE19F00A0EE80403E362
:101DD000E5CFEDFFFBD700EE0FF0100EE80403E3B4
:101DE000E5CFEDFFFBD716D81100DACFE4FFE2CF45
:101DF000DAFFE9CFE4FFEACFE4FFF6CFE4FFF7CF65
:101E0000E4FFF5CFE4FFF3CFE4FFF4CFE4FFFACF34
:101E1000E4FF1200E5CFFAFFE5CFF4FFE5CFF3FFD3
:101E2000E5CFF5FFE5CFF7FFE5CFF6FFE5CFEAFF1A
:101E3000E5CFE9FFE5CFDAFF12005AEC0DF0F2949E
:101E40005CEC0DF0AFEF0DF076EC0DF09E9073ECC6
:101E50000DF0BDEF0DF08CEC0DF09E9288EC0DF0C6
:101E6000CBEF0DF0ADEC0DF0A192A5EC0DF0D9EF9C
:021E70000DF073
:0E1E7200B06A810EAF6EAC8AAC94B886AC98A4
:101E8000AB8EAB889E9A9D8A9F9A949C948E1200EA
:101E900070D8040EE126DE6ADD6ADECF10F0DDCFF9
:101EA00011F0FD0EDBCF12F0FE0EDBCF13F0115060
:101EB0001318E8AE02D0133404D01250105C135043
:101EC00011581DE2020EDB6A030EDB6A020EDBCF45
:101ED00010F0030EDBCF11F0D890115004E6EE0E97
:101EE000105C000E115806E2020EDB2A030EEEE330
:101EF000DB2AECD7DF2A010ED0E3DB2ACED7040E93
:101F0000E15C02E2E16AE552E16E38D032D89EA887
:101F1000FED7FE0EDB50AD6E9E9830D02AD832D858
:101F20000AE030D8E66EF2DFE552FD0EDB2AFE0E47
:101F3000F6E3DB2AF4D722D01CD812D80EE010D852
:101F4000E66EE4DFE552FD0EDBCFF6FFDB2AFE0E88
:101F5000DBCFF7FFF2E3DB2AF0D710D0CAEF0FF0A8
:101F6000FD0EDBCFF6FFFE0EDBCFF7FF0800F550CE
:101F70001200D9CFE6FFE1CFD9FF1200E552E7CF3B
:101F8000D9FF1200FD0EDBCFE9FFFE0EDBCFEAFF2B
:041F9000EF501200FC
:0C1F9400D9CFE6FFE1CFD9FFE652AE50F6
:101FA000DF6EDFCFE6FF86EC0FF0E55201017351E3
:101FB000050A2AE0010A21E0070A11E0010A0AE005
:101FC000020A02E0010A2AE1FF0EDF5C28E1766BDB
:101FD000020E22D0FF0EDF5C15E1030E1DD07651FC
:101FE000EA6A810FE96E000EEA22DFCFEFFF762B5F
:101FF0007851765D14E3040E0FD0FE0EDF5C02E133
:10200000050E0AD0010E08D0FE0EDF5C04E1010EC1
:10201000746F736B04D0010E736F01D0736BE55254
:10202000E552E7CFD9FF120012000101740532E139
:102030004C0EE66E210EE66EE66AE66ACBEC08F020
:10204000E552E552E552E5520001806B01017851FD
:102050000001805D15E28051EA6A810FE96E000E91
:10206000EA22EFCF10F0116A126A136A10C0E6FF7D
:102070001BD8030E8003F3500ED80001802BE6D747
:1020800073C110F0116A126A136A73C1E6FF0CD8AB
:102090000F0E01D81200E66EE66A7DEC08F0146EB1
:1020A000060EE15E1450120011C0E6FF12C0E6FFFA
:0620B00013C0E6FF120060
:0A20B6005048415345325F59454C34
:1020C0004C4F57005048415345325F475245454EAB
:1020D000005048415345315F59454C4C4F570050D3
:1020E00048415345315F475245454E0050322059D3
:1020F000656C6C6F7720426C696E6B0050312059B3
:10210000656C6C6F7720426C696E6B0050322059A1
:10211000454C4C4F5700503120524544005032201E
:10212000475245454E0050312059454C4C4F5700C1
:1021300050322052454400503120475245454E0010
:10214000494E49545F53595354454D002020202097
:0D2150002020202020202020202020200002
:01215D000081
:02215E00006A15
:102160000EAEB8EF10F00D6C0E1EE86A0E22001EC7
:1021700009AEC0EF10F0086C091EE86A0922001EC3
:102180002EEC12F009BED0EF10F000AE000C086C7F
:10219000091EE86A0922046C051EE86A0522000C83
:1021A00000BEC7EF10F00188FF0C006A0EAEE0EF32
:1021B00010F00C6C0D1E0E1EE86A0D220E22001E81
:1021C00009AEEAEF10F0076C081E091EE86A082243
:1021D0000922001EF5EC11F009BEFDEF10F000AE73
:1021E000000C076C081E091EE86A08220922036C0D
:1021F000041E051E04220522000C00BEF1EF10F0A3
:042200000188FF0C46
:0C2204001E0EF66E000EF76E000EF86E57
:1022100001010900F550896F0900F5508A6F03E14B
:10222000896701D03DD00900F550846F0900F55051
:10223000856F0900F550866F09000900F550E96EB9
:102240000900F550EA6E090009000900F550876F92
:102250000900F550886F09000900F6CF8BF1F7CF20
:102260008CF1F8CF8DF184C1F6FF85C1F7FF86C1EF
:10227000F8FF0101875302E1885307E00900F55098
:10228000EE6E8707F8E28807F9D78BC1F6FF8CC19D
:10229000F7FF8DC1F8FF01018907000E8A5BBFD7E8
:0222A00012002A
:0E22A200010E926E0E0EC16EC26A040EC06E68
:1022B000C2801200D9CFE6FFE1CFD9FF020EE1269E
:1022C000DE6ADD6AC282C2B2FED7C450DE6EDD6A4B
:1022D000DECF12F0DDCF13F0D89012361336D8903F
:1022E00012361336060EC3CFE7FF070B04E0E742B2
:1022F000E79EE806FCE1E7501224106E000E132062
:1023000010C0DEFFDD6EDECF61FFDDCF62FFDECF0E
:1023100010F0DDCF11F010C0F3FF11C0F4FF020E7A
:10232000E15C02E2E16AE552E16EE552E7CFD9FFF6
:02233000120099
:0E23320006500B02F3CF02F0F4CF03F00C02C2
:10234000F3500326000EF420046E06500D02F350E5
:102350000426000EF420056E06500E02F3500526EA
:1023600007500B02F3500326F4500422000E0522FE
:1023700007500C02F3500426F450052207500D02BA
:10238000F350052608500B02F3500426F4500522A2
:1023900008500C02F350052609500B02F350052695
:0223A000120029
:0E23A200056A046A036A026A200EE76ED8908C
:1023B0000636073608360936023603360436053641
:1023C0000B50025C0C5003580D5004580E50055829
:1023D00009E30B50025E0C50035A0D50045A0E5084
:0A23E000055A062AE72EE4D7120082
:0623EA00056A046A036AA3
:1023F000180EE76ED89007360836093603360436CD
:1024000005360C50035C0D5004580E50055807E378
:102410000C50035E0D50045A0E50055A072AE72E41
:04242000EAD71200E5
:0C242400CA94CA90CA829B0ECB6EBD9871
:10243000BD9ABE6ABD9CBD9EBD90BD92BD84BD8649
:102440009494CA841200D9CFE6FFE1CFD9FFFE0EE3
:0C245000DB50BE6EE552E7CFD9FF120052
:04245C00056A046A9F
:10246000100EE76ED89008360936043605360D5042
:10247000045C0E50055805E30D50045E0E50055ADD
:08248000082AE72EF0D7120034
:08248800800EF36E00EE00F07F
:102490000F0E01D81200EA6002D0EE6AFCD7F350AA
:0824A000E9601200EE6AFCD7AE
:0824A8001EEE00F02EEE00F024
:1024B000F86A019C02EC11F003EC00F040EC00F033
:0424C000FBD7120034
:0C24C400056A080EE76ED8900936053650
:1024D0000E50055C02E3056E092AE72EF7D71200BD
:1024E00000000000000000000000000000000000EC
:1024F00000000000000000000100010001000100D8
:1025000000000000000000050500000000000000C1
:03251000000000C8
:0D251300039F250D9949411F010901020494
:1025200008102040800000000000000000FFFF199C
:0C25300003140300001900000A00000161
:04253C00000000009B
:1025400000000000101010101010101018181818AB
:10255000181818181C1C1C1C1C1C1C1C1E1E1E1EC3
:102560001E1E1E1E1F1F1F1F1F1F1F1F00000000FB
:10257000000000000000000000000000000000005B
:10258000000000000000000000000000000000004B
:0D259000000000000000000000000000003E
:03259D000000003B
:1025A000D0002222220725091000010000000000AF
:0825B000000000000000000023
:0825B80000000000000000001B
:1025C000000000000000000000000000000000000B
:1025D00000000000000000001020408001020408FC
:020000040030CA
:0100010002FC
:0100020003FA
:010003001EDE
:010005008179
:010006008178
:010008000FE8
:01000900C036
:01000A000FE6
:01000B00E014
:01000C000FE4
:01000D0040B2
:00000001FF
